:020000040800F2
:1000000000000120251100089D0F0008A30F000823
:10001000A90F0008AF0F0008B50F0008000000008E
:10002000000000000000000000000000BB0F0008FE
:10003000C90F000800000000D70F0008E50F0008F6
:100040007511000875110008751100087511000878
:100050007511000875110008751100087511000868
:100060007511000875110008751100087511000858
:100070007511000875110008751100087511000848
:100080007511000875110008751100087511000838
:100090007511000875110008751100087511000828
:1000A0007511000875110008751100087511000818
:1000B0007511000875110008751100087511000808
:1000C00075110008751100087511000875110008F8
:1000D00075110008751100087511000875110008E8
:1000E00075110008751100087511000875110008D8
:1000F00075110008751100087511000875110008C8
:1001000075110008000000000000000075110008D3
:1001100075110008751100087511000875110008A7
:100120007511000875110008751100087511000897
:1001300075110008751100080000000000000000A3
:100140007511000875110008751100080000000005
:10015000000000000000000000000000000000009F
:100160007511000875110008751100087511000857
:100170007511000875110008751100087511000847
:100180007511000875110008000000000000000053
:0401900075110008DD
:1001A00010B5054C237833B9044B13B10448AFF3B1
:1001B00000800123237010BD7800002000000000A3
:1001C0008457000808B5034B1BB103490348AFF33C
:1001D000008008BD000000007C000020845700085B
:1001E00001F0FF01102A2BDB10F0070F08D010F8E8
:1001F000013B013A8B422DD010F0070F42B3F6D1EC
:10020000F0B441EA012141EA014122F007047FF004
:1002100000070023F0E80256083C85EA010586EA5B
:10022000010685FA47F5A3FA87F586FA47F6A5FA97
:1002300087F68EB9EED1F0BC01F0FF0102F00702A3
:1002400032B110F8013B013A83EA010313B1F8D14E
:100250000020704701387047002D06BF354603382F
:10026000073815F0010F07D1013015F4807F02BF68
:10027000013015F4C03F0130F0BC0138704700BFB9
:10028000F0B5ADF5057D04AF0023C7F8FC310FE0F4
:10029000D7F8FC31DBB20A33D9B2A34AD7F8FC3124
:1002A00013440A461A70D7F8FC310133C7F8FC3101
:1002B000D7F8FC31B3F5006FEADB00F05DFF00F02A
:1002C00059F900F023FA00F0F1F900F0B1F997487C
:1002D00000F0D2FA3B469649184604F043F9C7F8B5
:1002E000F801D7F8F8319AB239466423914803F0FF
:1002F0001DFD00F0A3FB904B1B881A463B468F491F
:10030000184604F02FF9C7F8F801D7F8F8319AB277
:1003100039466423874803F009FD00F08FFB03464C
:1003200087F8F73197F8F7213B468549184604F0DE
:1003300019F9C7F8F801D7F8F8319AB239466423A9
:100340007C4803F0F3FC7C4B1B887B4A12881146E7
:100350007C4A11440522184600F024FB764B1B888A
:100360001A46784B9B5C1D46734B1B880133754ABC
:10037000D35C1E46704B1B880233724AD35C19460D
:100380006D4B1B8803336F4AD35C1C466A4B1B883A
:1003900004336C4AD35C384602930194009133468F
:1003A0002A46694904F0DEF8C7F8F801D7F8F831B1
:1003B0009AB2394664235F4803F0B8FC634B1B884C
:1003C000624A12881146584A114440F2DC521846DB
:1003D00000F07CFC5D4B1B881A463B465C49184686
:1003E00004F0C0F8C7F8F801D7F8F8319AB23946E6
:1003F0006423504803F09AFC544B1B88534A1288DC
:100400001146494A114440F2DC52184600F05EFCA5
:10041000034687F8F63197F8F6213B464D491846D2
:1004200004F0A0F8C7F8F801D7F8F8319AB23946C5
:100430006423404803F07AFC444B1B88434A1288EB
:100440001146404A114440F2DC52184600F0AAFA24
:100450003E4B1B883D4A128811463A4A114440F2ED
:10046000DC52184600F09EFA034687F8F53197F8FB
:10047000F5213B463849184604F074F8C7F8F801EE
:10048000D7F8F8319AB2394664232A4803F04EFC73
:100490002C4B93F856341C462A4B93F858341D467F
:1004A000284B93F859341A46264B93F85A34194678
:1004B000244B93F85B3438460293019100922B460B
:1004C0002246264904F04EF8C7F8F801D7F8F8316B
:1004D0009AB239466423174803F028FC204B1B8846
:1004E0001A463B461F49184604F03CF8C7F8F80185
:1004F000D7F8F8319AB2394664230E4803F016FC57
:10050000174B1B881849184600F0C6F9144B1B8876
:100510001649184600F002FA144B1B781946144885
:1005200004F008F8FEE700BF90090020A8080020AA
:100530009C5700080C09002094000020A8570008D0
:10054000C8570008A8000020F45700080000002049
:100550002858000848580008745800089C5800089B
:1005600002000020C858000804000020A400002059
:10057000E458000880B5A6B000AF07F17003282248
:100580000021184603F0CEFF07F15C0300221A6039
:100590005A609A60DA601A613B1D582200211846A1
:1005A00003F0C0FF02233B670123FB671023C7F85A
:1005B00080300223C7F888304FF40043C7F88C30EE
:1005C0004FF4E013C7F890300023C7F8943007F1D8
:1005D0007003184601F0E2F80346002B01D000F04A
:1005E00045F90F23FB6502233B6600237B664FF42E
:1005F0008063BB660023FB6607F15C03022118469B
:1006000001F0E2FF0346002B01D000F02FF9022396
:100610007B6000233B613B1D184602F00BFA03464A
:10062000002B01D000F022F900BF9837BD4680BDF5
:1006300080B500AF1B4B1C4A1A601A4B4FF48272F4
:100640005A60184B00229A60164B4FF4E062DA6051
:10065000144B00221A61134B00225A61114B4FF4C4
:1006600000729A610F4B1022DA610E4B00221A625F
:100670000C4B00225A620B4B00229A62094B072254
:10068000DA62084B00221A63064B00225A630548BF
:1006900002F0EEFB0346002B01D000F0E7F800BFAC
:1006A00080BD00BFA80800200030014080B500AF29
:1006B000144B154A1A60134B4FF4E1325A60114B38
:1006C00000229A600F4B0022DA600E4B00221A6162
:1006D0000C4B0C225A610B4B00229A61094B0022F1
:1006E000DA61084B00221A62064B00225A62054862
:1006F00003F0CEFA0346002B01D000F0B7F800BF9C
:1007000080BD00BF0C0900200044004080B58AB0C5
:1007100000AF07F1140300221A605A609A60DA6091
:100720001A61354B5B69344A43F400235361324B01
:100730005B6903F400233B613B692F4B5B692E4AE5
:1007400043F4800353612C4B5B6903F48003FB602B
:10075000FB68294B5B69284A43F400335361264BFD
:100760005B6903F40033BB60BB68234B5B69224ABF
:1007700043F480235361204B5B6903F480237B6047
:100780007B6800224FF480714FF0904000F0EEFF44
:1007900000224021194800F0E9FF4FF400537B612B
:1007A000174BBB610023FB6107F114031946154881
:1007B00000F052FE4FF480737B610123BB61002384
:1007C000FB6100233B6207F1140319464FF0904090
:1007D00000F042FE40237B610123BB610023FB61EB
:1007E00003233B6207F114031946044800F034FE6A
:1007F00000BF2837BD4680BD0010024000040048FD
:10080000000021100008004880B584B000AF786077
:100810007B68DBB23B7307F10C010A230122044819
:1008200003F084FA7B6818461037BD4680BD00BFD0
:100830000C09002080B586B000AFF860B9607A601E
:1008400000237B6109E0BB685A1CBA601B7818461C
:10085000FFF7DAFF7B6901337B617A697B689A4233
:10086000F1DB7B6818461837BD4680BD80B400AF09
:1008700072B600BFFEE7000080B483B000AF7860BE
:10088000044A7B68136000BF0C37BD465DF8047BEB
:10089000704700BF9011002080B584B000AF0346C0
:1008A0003960FB8002E0052000F0CCFC194B1B688E
:1008B00093F85D30DBB2012BF5D100F01FF9022374
:1008C0003B73FB881B0A9BB2DBB27B73FB88DBB2FA
:1008D000BB7300224021104800F048FF0D4B186800
:1008E00007F10C016423032202F06DFB094B186829
:1008F00064230122396802F066FB01224021064888
:1009000000F034FF00F05EF900F016F900BF103778
:10091000BD4680BD901100200004004880B584B021
:1009200000AF03463960FB8002E0052000F08AFC3E
:100930001A4B1B6893F85D30DBB2012BF5D1032312
:100940003B73FB881B0A9BB2DBB27B73FB88DBB279
:10095000BB7300224021124800F008FF0F4B1868BB
:1009600007F10C016423032202F02DFB02E00520B5
:1009700000F068FC094B186864230122396802F012
:1009800090FC0346022BF2D001224021044800F0E3
:10099000EDFE00BF1037BD4680BD00BF90110020A6
:1009A0000004004880B584B000AF03463960FB8086
:1009B0001346BB8002E0052000F044FC1D4B1B6881
:1009C00093F85D30DBB2012BF5D103233B73FB8839
:1009D0001B0A9BB2DBB27B73FB88DBB2BB730022CA
:1009E0004021154800F0C2FE124B186807F10C01B7
:1009F0006423032202F0E7FA02E0052000F022FC63
:100A00000C4B1868BA886423396802F04AFC034624
:100A1000022BF2D001224021074800F0A7FE00F08F
:100A2000A9F800F0A7F80346FB73FB7B18461037C4
:100A3000BD4680BD901100200004004880B5ADF592
:100A4000016D00AF0023C7F80C380BE007F1080276
:100A5000D7F80C381344FF221A70D7F80C3801333A
:100A6000C7F80C38D7F80C38B3F5006FEEDB02E0AE
:100A7000052000F0E7FB1F4B1B6893F85D30DBB2ED
:100A8000012BF5D100F03AF83B1D02221A703B1DF4
:100A900000225A703B1D00229A7000224021164805
:100AA00000F064FE134B1868391D6423032202F022
:100AB0008AFA104B186807F1080164234FF40062AA
:100AC00002F081FA012240210B4800F04FFE00F0B5
:100AD00079F800F031F800F04DF800F04BF80346DB
:100AE00087F80B3897F80B38184607F50167BD46AD
:100AF00080BD00BF901100200004004880B582B086
:100B000000AF002240210A4800F030FE06233B716E
:100B1000084B1868391D6423012202F054FA01229F
:100B20004021034800F022FE00BF0837BD4680BDCB
:100B3000000400489011002080B582B000AF002270
:100B400040210A4800F012FE04233B71084B18684C
:100B5000391D6423012202F036FA012240210348A4
:100B600000F004FE00BF0837BD4680BD0004004809
:100B70009011002080B582B000AF002240210F48C4
:100B800000F0F4FD05233B710D4B1868391D6423FB
:100B9000012202F018FA0A4B186839466423012230
:100BA00002F07FFB3B78FB7101224021034800F0FB
:100BB000DDFDFB7918460837BD4680BD00040048BE
:100BC0009011002080B582B000AF00233B71052357
:100BD0003B7000224021154800F0C8FD144B1868F6
:100BE00039466423012202F0EEF902E0052000F00C
:100BF00029FB0F4B1868391DC823012202F051FB55
:100C00000346022BF2D0052000F01CFB3B7903F0D9
:100C10000103002BEDD101224021044800F0A6FD84
:100C2000002318460837BD4680BD00BF00040048B9
:100C30009011002080B584B000AF03463960FB807E
:100C40001346BB8002E0052000F0FCFA1D4B1B6838
:100C500093F85D30DBB2012BF5D1FFF74FFF022394
:100C60003B73FB881B0A9BB2DBB27B73FB88DBB256
:100C7000BB7300224021144800F078FD114B186826
:100C800007F10C016423032202F09DF90D4B186853
:100C9000BA886423396802F096F9012240210A4893
:100CA00000F064FDFFF78EFFFFF746FFFFF762FFDE
:100CB000FFF760FF0346FB73FB7B18461037BD460A
:100CC00080BD00BF901100200004004880B586B0B0
:100CD00000AF03463960FB801346BB800023FB82D4
:100CE0000023BB8200237B8200233B820023FB8105
:100CF0000023BB81FB8803F01F037B827B8AC3F147
:100D000020033B82BB885B09FB82BB8803F01F0387
:100D1000BB827B8A002B27D1FB8A002B16D1BB8894
:100D2000BB81BA89FB8839681846FFF783FF82E0E8
:100D30002023BB81BA89FB8839681846FFF77AFF00
:100D4000FB882033FB803B6820333B60FB8A5A1EC4
:100D5000FA82002BECD1BB8ABB81BA89FB88396847
:100D60001846FFF767FF66E0FB8A002B29D1BA8A95
:100D70003B8A9A421CD9BA8A3B8AD31AFB813B8AA6
:100D8000BB81BA89FB8839681846FFF753FFFA8898
:100D90003B8A1344FB803B8A3A6813443B60FB89DF
:100DA000BB81BA89FB8839681846FFF743FF42E0E8
:100DB000BB88BB81BA89FB8839681846FFF73AFFC0
:100DC00039E0BA883B8AD31ABB80BB885B09FB82B7
:100DD000BB8803F01F03BB823B8ABB81BA89FB88B7
:100DE00039681846FFF726FFFA883B8A1344FB80D0
:100DF0003B8A3A6813443B600DE02023BB81BA89EB
:100E0000FB8839681846FFF715FFFB882033FB8005
:100E10003B6820333B60FB8A5A1EFA82002BECD1E0
:100E2000BB8A002B07D0BB8ABB81BA89FB88396893
:100E30001846FFF7FFFEFFF79DFEFFF79BFE0346F8
:100E4000FB72FB7A18461837BD4680BD80B582B06C
:100E500000AF0F4B9B690E4A43F0010393610C4BAB
:100E60009B6903F001037B607B68094BDB69084ADF
:100E700043F08053D361064BDB6903F080533B6042
:100E80003B68072000F0B4FA00BF0837BD4680BDBC
:100E90000010024080B58AB000AF786007F11403FB
:100EA00000221A605A609A60DA601A617B681B68D7
:100EB000174A934228D1174B9B69164A43F4805333
:100EC0009361144B9B6903F480533B613B69114B65
:100ED0005B69104A43F4003353610E4B5B6903F4C2
:100EE0000033FB60FB68E0237B610223BB610023CE
:100EF000FB6103233B6205237B6207F11403194660
:100F00004FF0904000F0A8FA00BF2837BD4680BDE2
:100F1000003001400010024080B58AB000AF786018
:100F200007F1140300221A605A609A60DA601A61AD
:100F30007B681B68174A934228D1174BDB69164A16
:100F400043F40033D361144BDB6903F400333B619A
:100F50003B69114B5B69104A43F4003353610E4BFC
:100F60005B6903F40033FB60FB680C237B610223A5
:100F7000BB610023FB6100233B6207237B6207F117
:100F8000140319464FF0904000F066FA00BF28376E
:100F9000BD4680BD004400400010024080B400AF58
:100FA000FEE780B400AFFEE780B400AFFEE780B498
:100FB00000AFFEE780B400AFFEE780B400AF00BF33
:100FC000BD465DF8047B704780B400AF00BFBD46EE
:100FD0005DF8047B704780B400AF00BFBD465DF88C
:100FE000047B704780B500AF00F00CF900BF80BDF6
:100FF00080B586B000AFF860B9607A6000237B618D
:101000000AE0AFF300800146BB685A1CBA60CAB25E
:101010001A707B6901337B617A697B689A42F0DBE5
:101020007B6818461837BD4680BD80B483B000AFDA
:1010300078604FF0FF3318460C37BD465DF8047BEF
:10104000704780B483B000AF786039603B684FF47C
:1010500000525A60002318460C37BD465DF8047BE9
:10106000704780B483B000AF7860012318460C3716
:10107000BD465DF8047B704780B485B000AFF86072
:10108000B9607A60002318461437BD465DF8047BCA
:101090007047000080B586B000AF7860144A154BE9
:1010A000D31A7B617B693B61134B1B68002B02D118
:1010B000114B124A1A60104B1A687B6813443A6944
:1010C0009A4207D203F004FA03460C221A604FF04A
:1010D000FF3309E0084B1B68FB60074B1A687B680D
:1010E0001344054A1360FB6818461837BD4680BD97
:1010F000000001200004000098000020B011002032
:1011000080B400AF064BD3F88830054A43F470032F
:10111000C2F8883000BFBD465DF8047B704700BF51
:1011200000ED00E0DFF834D00D480E490E4A0023F0
:1011300002E0D458C4500433C4188C42F9D30B4A8B
:101140000B4C002301E013600432A242FBD3FFF7F3
:10115000D7FF03F0C3F9FFF793F8FEE70000012083
:101160000000002078000020D859000878000020F6
:10117000AC110020FEE7000080B500AF084B1B68F3
:10118000074A43F010031360032000F031F90020F8
:1011900000F008F8FFF75AFE0023184680BD00BF94
:1011A0000020024080B582B000AF7860124B1A6810
:1011B000124B1B7819464FF47A73B3FBF1F3B2FB71
:1011C000F3F3184600F03BF90346002B01D001234E
:1011D0000EE07B680F2B0AD8002279684FF0FF30B1
:1011E00000F011F9064A7B681360002300E0012338
:1011F00018460837BD4680BD0800002010000020BA
:101200000C00002080B400AF064B1B781A46064B3A
:101210001B681344044A136000BFBD465DF8047B9D
:10122000704700BF100000209811002080B400AF6C
:10123000034B1B681846BD465DF8047B704700BF32
:101240009811002080B584B000AF7860FFF7EEFF02
:10125000B8607B68FB60FB68B3F1FF3F05D00A4BC9
:101260001B781A46FB681344FB6000BFFFF7DEFFE4
:101270000246BB68D31AFA689A42F7D800BF00BF8B
:101280001037BD4680BD00BF1000002080B485B07F
:1012900000AF78607B6803F00703FB600C4BDB68F2
:1012A000BB60BA684FF6FF031340BB60FB681A02CD
:1012B000BB68134343F0BF6343F40033BB60044A8D
:1012C000BB68D36000BF1437BD465DF8047B704730
:1012D00000ED00E080B400AF044BDB681B0A03F0B4
:1012E00007031846BD465DF8047B704700ED00E03B
:1012F00080B483B000AF03463960FB7197F90730C3
:10130000002B0ADB3B68DAB20C4997F9073012016F
:10131000D2B20B4483F800230AE03B68DAB20849F2
:10132000FB7903F00F03043B1201D2B20B441A768F
:1013300000BF0C37BD465DF8047B704700E100E05C
:1013400000ED00E080B489B000AFF860B9607A6069
:10135000FB6803F00703FB61FB69C3F10703042B80
:1013600028BF0423BB61FB690433062B02D9FB6948
:10137000033B00E000237B614FF0FF32BB6902FAC0
:1013800003F3DA43BB681A407B699A404FF0FF31A0
:101390007B6901FA03F3D9437B680B40134318467A
:1013A0002437BD465DF8047B7047000080B582B0ED
:1013B00000AF78607B68013BB3F1807F01D30123EC
:1013C0000FE00A4A7B68013B53600F214FF0FF306A
:1013D000FFF78EFF054B00229A60044B07221A602C
:1013E000002318460837BD4680BD00BF10E000E06E
:1013F00080B582B000AF78607868FFF747FF00BF24
:101400000837BD4680BD80B586B000AF0346B960E1
:101410007A60FB7300237B61FFF75CFF78617A6879
:10142000B9687869FFF78EFF024697F90F301146C9
:101430001846FFF75DFF00BF1837BD4680BD80B579
:1014400082B000AF78607868FFF7B0FF03461846B7
:101450000837BD4680BD000080B487B000AF78601B
:10146000396000237B6160E13B681A6801217B6978
:1014700001FA03F31340FB60FB68002B00F052817C
:101480003B685B68012B0BD03B685B68022B07D085
:101490003B685B68112B03D03B685B68122B30D133
:1014A0007B689B683B617B695B00032202FA03F364
:1014B000DB433A6913403B613B68DA687B695B0058
:1014C00002FA03F33A6913433B617B683A699A6015
:1014D0007B685B683B6101227B6902FA03F3DB43B3
:1014E0003A6913403B613B685B681B0903F00102EA
:1014F0007B6902FA03F33A6913433B617B683A69FB
:101500005A607B68DB683B617B695B00032202FAFF
:1015100003F3DB433A6913403B613B689A687B699C
:101520005B0002FA03F33A6913433B617B683A6953
:10153000DA603B685B68022B03D03B685B68122B68
:1015400023D17B69DA087B68083253F822303B618B
:101550007B6903F007039B000F2202FA03F3DB43CE
:101560003A6913403B613B681A697B6903F00703E2
:101570009B0002FA03F33A6913433B617B69DA0883
:101580007B680832396943F822107B681B683B612D
:101590007B695B00032202FA03F3DB433A691340E1
:1015A0003B613B685B6803F003027B695B0002FA06
:1015B00003F33A6913433B617B683A691A603B68FD
:1015C0005B6803F08053002B00F0AC805E4B9B699E
:1015D0005D4A43F0010393615B4B9B6903F0010398
:1015E000BB60BB68594A7B699B08023352F82330C1
:1015F0003B617B6903F003039B000F2202FA03F3B4
:10160000DB433A6913403B617B68B3F1904F25D0CF
:101610007B684F4A93421FD07B684E4A934219D051
:101620007B684D4A934213D07B684C4A93420DD05D
:101630007B684B4A934207D07B684A4A934201D168
:1016400006230CE007230AE0052308E0042306E054
:10165000032304E0022302E0012300E000237A696F
:1016600002F00302920093403A6913433B61374909
:101670007B699B0802333A6941F823203A4B1B6887
:101680003B61FB68DB433A6913403B613B685B6845
:1016900003F48033002B03D03A69FB6813433B61AA
:1016A000314A3B691360304B5B683B61FB68DB434D
:1016B0003A6913403B613B685B6803F40033002BDD
:1016C00003D03A69FB6813433B61274A3B69536087
:1016D000254B9B683B61FB68DB433A6913403B61E8
:1016E0003B685B6803F48013002B03D03A69FB6806
:1016F00013433B611C4A3B6993601B4BDB683B61B6
:10170000FB68DB433A6913403B613B685B6803F469
:101710000013002B03D03A69FB6813433B61124A64
:101720003B69D3607B6901337B613B681A687B69E5
:1017300022FA03F3002B7FF497AE00BF00BF1C37E3
:10174000BD465DF8047B7047001002400000014078
:101750000004004800080048000C00480010004841
:1017600000140048001800480004014080B483B011
:1017700000AF78600B467B8013467B707B78002B34
:1017800003D07A887B689A6102E07A887B689A62E3
:1017900000BF0C37BD465DF8047B704780B5ADF5E2
:1017A000027D00AF3B1D18603B1D1B68002B02D162
:1017B000012300F001BF3B1D1B681B6803F0010300
:1017C000002B00F06081AE4B5B6803F00C03042B30
:1017D0000CD0AB4B5B6803F00C03082B59D1A84B22
:1017E0005B6803F4C033B3F5803F52D14FF400334C
:1017F000C7F8F431D7F8F43193FAA3F3C7F8F0310E
:10180000D7F8F031B3FA83F3DBB25B09DBB243F014
:101810000103DBB2012B02D1994B1B6815E04FF499
:101820000033C7F8EC31D7F8EC3193FAA3F3C7F8DB
:10183000E8314FF40033C7F8E431D7F8E43193FAD4
:10184000A3F3C7F8E0318E4B5B6A4FF40032C7F860
:10185000DC21D7F8DC2192FAA2F2C7F8D821D7F818
:10186000D821B2FA82F2D2B242F02002D2B202F011
:101870001F02012101FA02F21340002B00F0028145
:101880003B1D1B685B68002B40F0FC80012300F0CF
:1018900093BE3B1D1B685B68B3F5803F06D1784B58
:1018A0001B68774A43F48033136030E03B1D1B68AC
:1018B0005B68002B0CD1724B1B68714A23F4803398
:1018C00013606F4B1B686E4A23F4802313601EE085
:1018D0003B1D1B685B68B3F5A02F0CD1684B1B68E0
:1018E000674A43F480231360654B1B68644A43F4E2
:1018F000803313600BE0624B1B68614A23F4803332
:1019000013605F4B1B685E4A23F4802313603B1D0A
:101910001B685B68002B59D0FFF788FCC7F80002F2
:101920000AE0FFF783FC0246D7F80032D31A642B93
:1019300002D9032300F040BE4FF40033C7F8D4317E
:10194000D7F8D43193FAA3F3C7F8D031D7F8D03110
:10195000B3FA83F3DBB25B09DBB243F00103DBB222
:10196000012B02D1464B1B6815E04FF40033C7F83A
:10197000CC31D7F8CC3193FAA3F3C7F8C8314FF480
:101980000033C7F8C431D7F8C43193FAA3F3C7F8CA
:10199000C0313B4B5B6A4FF40032C7F8BC21D7F82B
:1019A000BC2192FAA2F2C7F8B821D7F8B821B2FA4E
:1019B00082F2D2B242F02002D2B202F01F02012122
:1019C00001FA02F21340002BABD05CE0FFF72EFCD3
:1019D000C7F800020AE0FFF729FC0246D7F80032F8
:1019E000D31A642B02D9032300F0E6BD4FF4003371
:1019F000C7F8B431D7F8B43193FAA3F3C7F8B031CC
:101A0000D7F8B031B3FA83F3DBB25B09DBB243F052
:101A10000103DBB2012B02D1194B1B6815E04FF417
:101A20000033C7F8AC31D7F8AC3193FAA3F3C7F859
:101A3000A8314FF40033C7F8A431D7F8A43193FA92
:101A4000A3F3C7F8A0310E4B5B6A4FF40032C7F81E
:101A50009C21D7F89C2192FAA2F2C7F89821D7F8D6
:101A60009821B2FA82F2D2B242F02002D2B202F04F
:101A70001F02012101FA02F21340002BABD102E058
:101A80000010024000BF3B1D1B681B6803F00203EF
:101A9000002B00F07081D04B5B6803F00C03002B2F
:101AA0000CD0CD4B5B6803F00C03082B6DD1CA4BF7
:101AB0005B6803F4C033B3F5004F66D10223C7F867
:101AC0009431D7F8943193FAA3F3C7F89031D7F84B
:101AD0009031B3FA83F3DBB25B09DBB243F001036D
:101AE000DBB2012B02D1BC4B1B6813E00223C7F809
:101AF0008C31D7F88C3193FAA3F3C7F888310223DD
:101B0000C7F88431D7F8843193FAA3F3C7F880314A
:101B1000B14B5B6A0222C7F87C21D7F87C2192FA8C
:101B2000A2F2C7F87821D7F87821B2FA82F2D2B2BD
:101B300042F02002D2B202F01F02012101FA02F2A9
:101B40001340002B07D03B1D1B68DB68012B02D024
:101B5000012300F031BDA04B1B6823F0F8023B1DB0
:101B60001B681B69F821C7F87411D7F8741191FA32
:101B7000A1F1C7F87011D7F87011B1FA81F1C9B2AB
:101B80008B40954913430B60F5E03B1D1B68DB68F8
:101B9000002B00F085800123C7F86C31D7F86C3139
:101BA00093FAA3F3C7F86831D7F86831B3FA83F32F
:101BB000DBB203F1845303F584139B001A4601231F
:101BC0001360FFF733FBC7F800020AE0FFF72EFBB4
:101BD0000246D7F80032D31A022B02D9032300F0B1
:101BE000EBBC0223C7F86431D7F8643193FAA3F34E
:101BF000C7F86031D7F86031B3FA83F3DBB25B0921
:101C0000DBB243F00103DBB2012B02D1724B1B6844
:101C100013E00223C7F85C31D7F85C3193FAA3F3E1
:101C2000C7F858310223C7F85431D7F8543193FA22
:101C3000A3F3C7F85031684B5B6A0222C7F84C2106
:101C4000D7F84C2192FAA2F2C7F84821D7F84821D8
:101C5000B2FA82F2D2B242F02002D2B202F01F02F5
:101C6000012101FA02F21340002BAFD05A4B1B683E
:101C700023F0F8023B1D1B681B69F821C7F84411CB
:101C8000D7F8441191FAA1F1C7F84011D7F84011E3
:101C9000B1FA81F1C9B28B404F4913430B606AE03E
:101CA0000123C7F83C31D7F83C3193FAA3F3C7F8C6
:101CB0003831D7F83831B3FA83F3DBB203F1845308
:101CC00003F584139B001A4600231360FFF7AEFA56
:101CD000C7F800020AE0FFF7A9FA0246D7F8003277
:101CE000D31A022B02D9032300F066BC0223C7F8E3
:101CF0003431D7F8343193FAA3F3C7F83031D7F839
:101D00003031B3FA83F3DBB25B09DBB243F001039A
:101D1000DBB2012B02D1304B1B6813E00223C7F862
:101D20002C31D7F82C3193FAA3F3C7F828310223CA
:101D3000C7F82431D7F8243193FAA3F3C7F8203138
:101D4000254B5B6A0222C7F81C21D7F81C2192FAA6
:101D5000A2F2C7F81821D7F81821B2FA82F2D2B24B
:101D600042F02002D2B202F01F02012101FA02F277
:101D70001340002BAFD13B1D1B681B6803F0080309
:101D8000002B00F0DA803B1D1B685B69002B69D0DB
:101D90000123C7F81431D7F8143193FAA3F3C7F825
:101DA0001031D7F81031B3FA83F3DBB21A460B4B7C
:101DB00013449B001A4601231360FFF737FAC7F854
:101DC00000020DE0FFF732FA0246D7F80032D31ACC
:101DD000022B05D90323EFE300100240208190106D
:101DE0000223C7F80C31D7F80C3193FAA3F207F5A8
:101DF00084731A6007F5827302221A6007F58273F2
:101E00001B6893FAA3F207F580731A6007F1FC03CD
:101E100002221A6007F1FC031B6893FAA3F207F190
:101E2000F8031A60A44B5A6A07F1F40302211960FF
:101E300007F1F4031B6893FAA3F107F1F0031960AB
:101E400007F1F0031B68B3FA83F3DBB243F06003DE
:101E5000DBB203F01F03012101FA03F31340002B4F
:101E6000B0D06AE007F1EC0301221A6007F1EC033D
:101E70001B6893FAA3F207F1E8031A6007F1E8037D
:101E80001B68B3FA83F3DBB21A468C4B13449B00F6
:101E90001A4600231360FFF7C9F9C7F8000209E0EA
:101EA000FFF7C4F90246D7F80032D31A022B01D942
:101EB000032381E307F1E40302221A6007F1E4033C
:101EC0001B6893FAA3F207F1E0031A6007F1DC0341
:101ED00002221A6007F1DC031B6893FAA3F207F1F0
:101EE000D8031A6007F1D40302221A6007F1D40361
:101EF0001B6893FAA3F207F1D0031A606E4B5A6A7B
:101F000007F1CC030221196007F1CC031B6893FA97
:101F1000A3F107F1C803196007F1C8031B68B3FAFE
:101F200083F3DBB243F06003DBB203F01F03012154
:101F300001FA03F31340002BB2D13B1D1B681B6851
:101F400003F00403002B00F05781002387F80732C9
:101F5000594BDB6903F08053002B12D1564BDB69E0
:101F6000554A43F08053D361534BDB6903F08052F1
:101F700007F10C031A6007F10C031B68012387F8B3
:101F800007324F4B1B6803F48073002B1AD14C4B64
:101F90001B684B4A43F480731360FFF747F9C7F897
:101FA000000209E0FFF742F90246D7F80032D31ADF
:101FB000642B01D90323FFE2414B1B6803F48073B8
:101FC000002BEFD03B1D1B689B68012B06D13A4BC1
:101FD0001B6A394A43F0010313622FE03B1D1B6863
:101FE0009B68002B0CD1344B1B6A334A23F001034E
:101FF0001362314B1B6A304A23F0040313621DE065
:102000003B1D1B689B68052B0CD12B4B1B6A2A4A76
:1020100043F004031362284B1B6A274A43F0010371
:1020200013620BE0244B1B6A234A23F00103136263
:10203000214B1B6A204A23F0040313623B1D1B68DB
:102040009B68002B6AD0FFF7F1F8C7F800020BE09D
:10205000FFF7ECF80246D7F80032D31A41F2883283
:10206000934201D90323A7E207F1C40302221A60B5
:1020700007F1C4031B6893FAA3F207F1C0031A60C7
:1020800007F1BC0302221A6007F1BC031B6893FA34
:10209000A3F207F1B8031A6007F1B8031B68B3FA9B
:1020A00083F3DBB25B09DBB243F00203DBB2022B4A
:1020B00008D1014B1B6A13E00010024020819010F0
:1020C0000070004007F1B40302221A6007F1B40364
:1020D0001B6893FAA3F207F1B0031A60C04B5B6A66
:1020E00007F1AC020221116007F1AC02126892FA0A
:1020F000A2F107F1A802116007F1A8021268B2FA72
:1021000082F2D2B242F04002D2B202F01F020121AA
:1021100001FA02F21340002B9AD063E0FFF786F831
:10212000C7F800020BE0FFF781F80246D7F800324B
:10213000D31A41F28832934201D903233CE207F1DA
:10214000A40302221A6007F1A4031B6893FAA3F206
:1021500007F1A0031A6007F19C0302221A6007F13D
:102160009C031B6893FAA3F207F198031A6007F126
:1021700098031B68B3FA83F3DBB25B09DBB243F06D
:102180000203DBB2022B02D1954B1B6A0DE007F173
:10219000940302221A6007F194031B6893FAA3F2D6
:1021A00007F190031A608E4B5B6A07F18C020221E3
:1021B000116007F18C02126892FAA2F107F188020D
:1021C000116007F188021268B2FA82F2D2B242F0CC
:1021D0004002D2B202F01F02012101FA02F21340C2
:1021E000002BA0D197F80732012B05D17C4BDB697E
:1021F0007B4A23F08053D3613B1D1B689B69002BF6
:1022000000F0D981764B5B6803F00C03082B00F0DB
:10221000A6813B1D1B689B69022B40F01E8107F1C4
:1022200084034FF080721A6007F184031B6893FAED
:10223000A3F207F180031A6007F180031B68B3FA69
:1022400083F3DBB203F1845303F584139B001A4636
:1022500000231360FEF7EAFFC7F8000209E0FEF76B
:10226000E5FF0246D7F80032D31A022B01D9032327
:10227000A2E107F17C034FF000721A6007F17C03C2
:102280001B6893FAA3F207F178031A6007F1780349
:102290001B68B3FA83F3DBB25B09DBB243F00103E3
:1022A000DBB2012B02D14E4B1B681BE007F174031C
:1022B0004FF000721A6007F174031B6893FAA3F2DF
:1022C00007F170031A6007F16C034FF000721A6097
:1022D00007F16C031B6893FAA3F207F168031A6015
:1022E0003F4B5B6A07F164024FF00071116007F128
:1022F0006402126892FAA2F107F16002116007F11C
:1023000060021268B2FA82F2D2B242F02002D2B275
:1023100002F01F02012101FA02F21340002B9ED1AC
:102320002F4BDB6A23F00F023B1D1B685B6A2C49B5
:102330001343CB622A4B5B6823F476123B1D1B6868
:10234000196A3B1D1B68DB690B43254913434B602E
:1023500007F15C034FF080721A6007F15C031B68A1
:1023600093FAA3F207F158031A6007F158031B68A8
:10237000B3FA83F3DBB203F1845303F584139B00B8
:102380001A4601231360FEF751FFC7F8000209E067
:10239000FEF74CFF0246D7F80032D31A022B01D9C0
:1023A000032309E107F154034FF000721A6007F1AB
:1023B00054031B6893FAA3F207F150031A6007F164
:1023C00050031B68B3FA83F3DBB25B09DBB243F063
:1023D0000103DBB2012B05D1014B1B681EE000BFDE
:1023E0000010024007F14C034FF000721A6007F131
:1023F0004C031B6893FAA3F207F148031A6007F134
:1024000044034FF000721A6007F144031B6893FA0B
:10241000A3F207F140031A606A4B5B6A07F13C02C2
:102420004FF00071116007F13C02126892FAA2F1BC
:1024300007F13802116007F138021268B2FA82F22D
:10244000D2B242F02002D2B202F01F02012101FA00
:1024500002F21340002B9BD0ADE007F134034FF0A4
:1024600080721A6007F134031B6893FAA3F207F134
:1024700030031A6007F130031B68B3FA83F3DBB251
:1024800003F1845303F584139B001A460023136061
:10249000FEF7CCFEC7F8000209E0FEF7C7FE0246D1
:1024A000D7F80032D31A022B01D9032384E007F1B5
:1024B0002C034FF000721A6007F12C031B6893FA8B
:1024C000A3F207F128031A6007F128031B68B3FA87
:1024D00083F3DBB25B09DBB243F00103DBB2012B18
:1024E00002D1384B1B681BE007F124034FF0007248
:1024F0001A6007F124031B6893FAA3F207F1200383
:102500001A6007F11C034FF000721A6007F11C03F8
:102510001B6893FAA3F207F118031A60294B5B6A50
:1025200007F114024FF00071116007F114021268F4
:1025300092FAA2F107F11002116007F1100212687D
:10254000B2FA82F2D2B242F02002D2B202F01F02FC
:10255000012101FA02F21340002B9ED12BE03B1D1A
:102560001B689B69012B01D1012325E0154B5B689A
:10257000C7F8FC31134BDB6AC7F8F831D7F8FC31E8
:1025800003F4C0323B1D1B68DB699A4211D1D7F8B6
:10259000FC3103F470123B1D1B681B6A9A4208D180
:1025A000D7F8F83103F00F023B1D1B685B6A9A42B3
:1025B00001D0012300E00023184607F50277BD464D
:1025C00080BD00BF0010024080B59EB000AF7860B3
:1025D000396000237B677B68002B01D1012362E116
:1025E000904B1B6803F007033A689A4210D98D4B51
:1025F0001B6823F007028B493B6813430B60894B30
:102600001B6803F007033A689A4201D001234AE1AC
:102610007B681B6803F00203002B08D0824B5B68C9
:1026200023F0F0027B689B687F4913434B607B6813
:102630001B6803F00103002B00F0DC807B685B6803
:10264000012B3CD14FF400333B673B6F93FAA3F36C
:10265000FB66FB6EB3FA83F3DBB25B09DBB243F0DC
:102660000103DBB2012B02D16F4B1B680FE04FF46B
:102670000033BB66BB6E93FAA3F37B664FF4003363
:102680003B663B6E93FAA3F3FB65674B5B6A4FF4C3
:102690000032BA65BA6D92FAA2F27A657A6DB2FA30
:1026A00082F2D2B242F02002D2B202F01F02012125
:1026B00001FA02F21340002B7BD10123F3E07B6887
:1026C0005B68022B3CD14FF000733B653B6D93FA86
:1026D000A3F3FB64FB6CB3FA83F3DBB25B09DBB2FD
:1026E00043F00103DBB2012B02D14F4B1B680FE01B
:1026F0004FF00073BB64BB6C93FAA3F37B644FF0A1
:1027000000733B643B6C93FAA3F3FB63464B5B6A39
:102710004FF00072BA63BA6B92FAA2F27A637A6BE4
:10272000B2FA82F2D2B242F02002D2B202F01F021A
:10273000012101FA02F21340002B3AD10123B2E049
:1027400002233B633B6B93FAA3F3FB62FB6AB3FA8E
:1027500083F3DBB25B09DBB243F00103DBB2012B95
:1027600002D1314B1B680DE00223BB62BB6A93FAB6
:10277000A3F37B6202233B623B6A93FAA3F3FB6100
:10278000294B5B6A0222BA61BA6992FAA2F27A61B3
:102790007A69B2FA82F2D2B242F02002D2B202F0E8
:1027A0001F02012101FA02F21340002B01D1012383
:1027B00079E01D4B5B6823F003027B685B681A4974
:1027C00013434B60FEF732FD78670AE0FEF72EFDFB
:1027D00002467B6FD31A41F28832934201D9032318
:1027E00061E0114B5B6803F00C027B685B689B0047
:1027F0009A42EBD10B4B1B6803F007033A689A42ED
:1028000014D2084B1B6823F0070206493B681343A8
:102810000B60044B1B6803F007033A689A4205D02B
:10282000012340E000200240001002407B681B684A
:1028300003F00403002B08D01D4B5B6823F4E06217
:102840007B68DB681A4913434B607B681B6803F0A5
:102850000803002B09D0164B5B6823F460527B6899
:102860001B69DB00124913434B6000F029F8014655
:102870000F4B5B6803F0F003F0223A613A6992FA79
:10288000A2F2FA60FA68B2FA82F2D2B2D340094AEE
:10289000D35C21FA03F3084A1360084B1B681846FF
:1028A000FEF780FC002318467837BD4680BD00BF88
:1028B0000010024000590008080000200C00002011
:1028C00080B48BB000AF0023FB610023BB61002309
:1028D0007B6200237B6100233B622A4B5B68FB61C8
:1028E000FB6903F00C03042B02D0082B03D03FE05C
:1028F000254B3B623FE0FB6903F470134FF4701209
:10290000BA60BA6892FAA2F27A607A68B2FA82F28F
:10291000D2B2D3401D4AD35C7B611A4BDB6A03F011
:102920000F030F223A613A6992FAA2F2FA60FA684A
:10293000B2FA82F2D2B2D340154AD35CBB61FB69D2
:1029400003F48033002B08D00F4ABB69B2FBF3F2CB
:102950007B6902FB03F37B6207E00B4ABB69B2FBB6
:10296000F3F27B6902FB03F37B627B6A3B6202E06A
:10297000054B3B6200BF3B6A18462C37BD465DF8ED
:10298000047B70470010024000127A0018590008BA
:102990002859000880B400AF034B1B681846BD4699
:1029A0005DF8047B704700BF0800002080B582B04E
:1029B00000AFFFF7EFFF01460B4B5B6803F4E063EA
:1029C0004FF4E0627A607A6892FAA2F23A603A686A
:1029D000B2FA82F2D2B2D340044AD35C21FA03F3B2
:1029E00018460837BD4680BD001002401059000847
:1029F00080B582B000AFFFF7CDFF01460B4B5B689F
:102A000003F460534FF460527A607A6892FAA2F24B
:102A10003A603A68B2FA82F2D2B2D340044AD35C46
:102A200021FA03F318460837BD4680BD0010024066
:102A30001059000880B592B000AF786000233B6465
:102A40000023FB63002387F847307B681B6803F48F
:102A50008033002B00F0D4804E4BDB6903F08053B1
:102A6000002B0ED14B4BDB694A4A43F08053D361B4
:102A7000484BDB6903F08053BB60BB68012387F8D8
:102A80004730454B1B6803F48073002B18D1424B31
:102A90001B68414A43F480731360FEF7C7FB386438
:102AA00008E0FEF7C3FB02463B6CD31A642B01D946
:102AB0000323D6E1384B1B6803F48073002BF0D05E
:102AC000344B1B6A03F44073FB63FB6B002B00F079
:102AD00084807B685B6803F44073FA6B9A427CD015
:102AE0002C4B1B6A23F44073FB634FF480333B632E
:102AF0003B6B93FAA3F3FB62FB6AB3FA83F3DBB29B
:102B00001A46264B13449B001A46012313604FF4C8
:102B10008033BB63BB6B93FAA3F37B637B6BB3FA2A
:102B200083F3DBB21A461D4B13449B001A46002365
:102B30001360184AFB6B1362FB6B03F00103002B5D
:102B40004BD0FEF773FB38640AE0FEF76FFB0246DA
:102B50003B6CD31A41F28832934201D9032380E1BE
:102B60000223BB62BB6A93FAA3F37B6202233B623C
:102B70003B6A93FAA3F3FB61FB69B3FA83F3DBB21D
:102B80005B09DBB243F00203DBB2022B08D1014B3D
:102B90001B6A0DE0001002400070004000819010A0
:102BA0000223BB61BB6993FAA3F37B61A04B5B6A11
:102BB00002223A613A6992FAA2F2FA60FA68B2FA2B
:102BC00082F2D2B242F04002D2B202F01F020121E0
:102BD00001FA02F21340002BB7D0954B1B6A23F485
:102BE00040727B685B68924913430B6297F84730E9
:102BF000012B05D18E4BDB698D4A23F08053D361C5
:102C00007B681B6803F00103002B08D0884B1B6B0B
:102C100023F003027B689B68854913430B637B6841
:102C20001B6803F00203002B08D0814B1B6B23F4BD
:102C300040327B68DB687E4913430B637B681B680B
:102C400003F00403002B08D0794B1B6B23F44022C4
:102C50007B681B69764913430B637B681B6803F031
:102C60002003002B08D0724B1B6B23F010027B68F3
:102C7000DB696F4913430B637B681B6803F4003304
:102C8000002B08D06A4B5B6823F480027B685B6D85
:102C9000674913434B607B681B6803F04003002BBC
:102CA00008D0634B1B6B23F020027B681B6A6049D2
:102CB00013430B637B681B6803F48023002B08D04D
:102CC0005B4B1B6B23F040027B685B6A58491343E4
:102CD0000B637B681B6803F00803002B08D0544B80
:102CE0001B6B23F440127B685B69514913430B63F0
:102CF0007B681B6803F01003002B08D04C4B1B6B48
:102D000023F440027B689B69494913430B637B684A
:102D10001B6803F40073002B08D0454B5B6823F459
:102D200000027B681B6B424913434B607B681B6846
:102D300003F08003002B08D03D4BDB6A23F4F872CC
:102D40007B689B6A3A491343CB627B681B6803F438
:102D50008073002B08D0364BDB6A23F478527B68F3
:102D6000DB6A33491343CB627B681B6803F48053EF
:102D7000002B08D02E4B1B6B23F480727B685B6B9F
:102D80002B4913430B637B681B6803F40053002B30
:102D900008D0274B1B6B23F400727B681B6C244903
:102DA00013430B637B681B6803F48013002B08D06C
:102DB0001F4B1B6B23F080727B689B6B1C4913437A
:102DC0000B637B681B6803F40013002B08D0184BBF
:102DD0001B6B23F000727B68DB6B154913430B639D
:102DE0007B681B6803F48003002B08D0104B1B6B1F
:102DF00023F480627B685B6C0D4913430B637B6833
:102E00001B6803F40003002B08D0094B1B6B23F451
:102E100000627B689B6C064913430B637B681B68ED
:102E200003F08073002B0CD0014B1B6B02E000BF42
:102E30000010024023F400527B68DB6C0B49134303
:102E40000B637B681B6803F00073002B08D0074BF3
:102E50001B6B23F400427B681B6D044913430B6317
:102E6000002318464837BD4680BD00BF0010024011
:102E700080B584B000AF78607B68002B01D101235E
:102E80009DE07B685B6A002B08D17B685B68B3F5CB
:102E9000827F09D07B680022DA6105E07B6800222E
:102EA0001A617B6800225A617B6800229A627B6803
:102EB00093F85D30DBB2002B06D17B68002283F8EB
:102EC0005C207868FDF7E6FF7B68022283F85D20CE
:102ED0007B681B681A687B681B6822F040021A60D6
:102EE0007B68DB68B3F5E06F02D90023FB6002E08A
:102EF0004FF48053FB607B68DB68B3F5706F07D0DD
:102F00007B68DB68B3F5E06F02D07B6800229A62D1
:102F10007B685B6803F482727B689B6803F40443FC
:102F20001A437B681B6903F002031A437B685B69E1
:102F300003F001031A437B689B6903F400731A438F
:102F40007B68DB6903F038031A437B681B6A03F074
:102F5000800342EA03017B689B6A03F400527B68AA
:102F60001B680A431A607B689B691B0C03F0040210
:102F70007B685B6A03F010031A437B685B6B03F0AA
:102F800008031A437B68DB6803F4706342EA0301B9
:102F9000FB6803F480527B681B680A435A607B68B5
:102FA0001B68DA697B681B6822F40062DA617B685F
:102FB00000221A667B68012283F85D2000231846F0
:102FC0001037BD4680BD80B588B000AFF860B960ED
:102FD0003B601346FB800023FB77FB6893F85C3073
:102FE000012B01D1022358E1FB68012283F85C2008
:102FF000FEF71CF9B861FB88FB82FB6893F85D3033
:10300000DBB2012B02D00223FB773DE1BB68002B32
:1030100002D0FB88002B02D10123FB7734E1FB684F
:10302000032283F85D20FB6800221A66FB68BA68F9
:103030009A63FB68FA889A87FB68FA88DA87FB68E4
:1030400000221A64FB680022A3F84420FB680022D7
:10305000A3F84620FB6800221A65FB680022DA64A8
:10306000FB689B68B3F5004F0FD1FB681B681A68BB
:10307000FB681B6822F040021A60FB681B681A6834
:10308000FB681B6842F480421A60FB681B681B687F
:1030900003F04003402B07D0FB681B681A68FB68ED
:1030A0001B6842F040021A60FB68DB68B3F5E06F12
:1030B0004BD9FB685B68002B02D0FB8A012B3ED109
:1030C000FB689B6B1A88FB681B68DA60FB689B6B6C
:1030D0009A1CFB689A63FB68DB8F9BB2013B9AB238
:1030E000FB68DA872BE0FB681B689B6803F0020330
:1030F000022B12D1FB689B6B1A88FB681B68DA6095
:10310000FB689B6B9A1CFB689A63FB68DB8F9BB226
:10311000013B9AB2FB68DA8711E0FEF787F80246B6
:10312000BB69D31A3A689A4203D83B68B3F1FF3FB0
:1031300002D13B68002B02D10323FB77A4E0FB689C
:10314000DB8F9BB2002BCED17CE0FB685B68002B51
:1031500002D0FB8A012B70D1FB68DB8F9BB2012B65
:1031600012D9FB689B6B1A88FB681B68DA60FB68E6
:103170009B6B9A1CFB689A63FB68DB8F9BB2023BDC
:103180009AB2FB68DA8758E0FB689A6BFB681B68A9
:103190000C3312781A70FB689B6B5A1CFB689A639D
:1031A000FB68DB8F9BB2013B9AB2FB68DA8744E095
:1031B000FB681B689B6803F00203022B2BD1FB68A2
:1031C000DB8F9BB2012B12D9FB689B6B1A88FB68C3
:1031D0001B68DA60FB689B6B9A1CFB689A63FB6850
:1031E000DB8F9BB2023B9AB2FB68DA8725E0FB6873
:1031F0009A6BFB681B680C3312781A70FB689B6B28
:103200005A1CFB689A63FB68DB8F9BB2013B9AB246
:10321000FB68DA8711E0FEF709F80246BB69D31AAA
:103220003A689A4203D83B68B3F1FF3F02D13B684A
:10323000002B02D10323FB7726E0FB68DB8F9BB2D8
:10324000002BB5D1BA693968F86800F0DBFC034699
:10325000002B02D0FB6820221A66FB689B68002BBB
:103260000AD100233B61FB681B68DB683B61FB689C
:103270001B689B683B613B69FB681B6E002B02D09F
:103280000123FB7700E000BFFB68012283F85D208B
:10329000FB68002283F85C20FB7F18462037BD4680
:1032A00080BD80B588B002AFF860B9603B6013465E
:1032B000FB800023FB75FB685B68B3F5827F12D14E
:1032C000FB689B68002B0ED1FB68042283F85D200D
:1032D000FA883B6800931346BA68B968F86800F04A
:1032E00010F9034609E1FB6893F85C30012B01D12A
:1032F000022302E1FB68012283F85C20FDF796FFC0
:103300003861FB6893F85D30DBB2012B02D00223F9
:10331000FB75E9E0BB68002B02D0FB88002B02D1D3
:103320000123FB75E0E0FB68042283F85D20FB6865
:1033300000221A66FB68BA681A64FB68FA88A3F868
:103340004420FB68FA88A3F84620FB6800229A63B1
:10335000FB6800229A87FB680022DA87FB6800225C
:10336000DA64FB6800221A65FB68DB68B3F5E06F7E
:1033700008D9FB681B685A68FB681B6822F48052F6
:103380005A6007E0FB681B685A68FB681B6842F4D8
:1033900080525A60FB689B68B3F5004F0FD1FB6801
:1033A0001B681A68FB681B6822F040021A60FB6801
:1033B0001B681A68FB681B6822F480421A60FB686D
:1033C0001B681B6803F04003402B07D0FB681B6899
:1033D0001A68FB681B6842F040021A60FB68DB68F1
:1033E000B3F5E06F67D830E0FB681B689B6803F0BB
:1033F0000103012B17D1FB681B6803F10C02FB686A
:103400001B6C1278D2B21A70FB681B6C5A1CFB68DA
:103410001A64FB68B3F846309BB2013B9AB2FB6872
:10342000A3F8462011E0FDF701FF02463B69D31ADD
:103430003A689A4203D83B68B3F1FF3F02D13B6838
:10344000002B02D10323FB754EE0FB68B3F8463036
:103450009BB2002BC8D134E0FB681B689B6803F06B
:103460000103012B15D1FB681B68DA68FB681B6C34
:1034700092B21A80FB681B6C9A1CFB681A64FB688A
:10348000B3F846309BB2013B9AB2FB68A3F84620E2
:1034900011E0FDF7CBFE02463B69D31A3A689A4227
:1034A00003D83B68B3F1FF3F02D13B68002B02D148
:1034B0000323FB7518E0FB68B3F846309BB2002B82
:1034C000CAD13A693968F86800F044FB0346002B1A
:1034D00002D0FB6820221A66FB681B6E002B02D00C
:1034E0000123FB7500E000BFFB68012283F85D202B
:1034F000FB68002283F85C20FB7D18461837BD4628
:1035000080BD80B58AB000AFF860B9607A607B801A
:1035100001237B62002387F82330FB6893F85C303B
:10352000012B01D10223FBE1FB68012283F85C201F
:10353000FDF77CFEF861FB6893F85D30FB76FB6875
:103540005B687B617B887B827B883B82FB7E012B77
:103550000ED07B69B3F5827F06D1FB689B68002B98
:1035600002D1FB7E042B03D0022387F82330CDE168
:10357000BB68002B05D07B68002B02D07B88002B1A
:1035800003D1012387F82330C0E1FB6893F85D3055
:10359000DBB2042B03D0FB68052283F85D20FB68B7
:1035A00000221A66FB687A681A64FB687A88A3F8B6
:1035B0004620FB687A88A3F84420FB68BA689A63BF
:1035C000FB687A88DA87FB687A889A87FB6800222A
:1035D000DA64FB6800221A65FB68DB68B3F5E06F0C
:1035E00002D83B8A012B08D9FB681B685A68FB6824
:1035F0001B6822F480525A6007E0FB681B685A6817
:10360000FB681B6842F480525A60FB681B681B68A9
:1036100003F04003402B07D0FB681B681A68FB6867
:103620001B6842F040021A60FB68DB68B3F5E06F8C
:103630007CD9FB685B68002B02D07B8A012B69D1A7
:10364000FB689B6B1A88FB681B68DA60FB689B6BE6
:103650009A1CFB689A63FB68DB8F9BB2013B9AB2B2
:10366000FB68DA8756E0FB681B689B6803F002037F
:10367000022B1BD1FB68DB8F9BB2002B16D07B6A21
:10368000012B13D1FB689B6B1A88FB681B68DA60FF
:10369000FB689B6B9A1CFB689A63FB68DB8F9BB291
:1036A000013B9AB2FB68DA8700237B62FB681B68E8
:1036B0009B6803F00103012B1CD1FB68B3F8463073
:1036C0009BB2002B16D0FB681B68DA68FB681B6C8A
:1036D00092B21A80FB681B6C9A1CFB681A64FB6828
:1036E000B3F846309BB2013B9AB2FB68A3F8462080
:1036F00001237B62FDF79AFD0246FB69D31A3A6B00
:103700009A4207D83B6BB3F1FF3F03D0032387F8FE
:103710002330FBE0FB68DB8F9BB2002BA3D1FB685F
:10372000B3F846309BB2002B9DD1DFE0FB685B68AD
:10373000002B03D07B8A012B40F0CB80FB68DB8F12
:103740009BB2012B12D9FB689B6B1A88FB681B6824
:10375000DA60FB689B6B9A1CFB689A63FB68DB8FE3
:103760009BB2023B9AB2FB68DA87B2E0FB689A6BC5
:10377000FB681B680C3312781A70FB689B6B5A1C31
:10378000FB689A63FB68DB8F9BB2013B9AB2FB68D4
:10379000DA879EE0FB681B689B6803F00203022B3C
:1037A00034D1FB68DB8F9BB2002B2FD07B6A012BBF
:1037B0002CD1FB68DB8F9BB2012B12D9FB689B6B72
:1037C0001A88FB681B68DA60FB689B6B9A1CFB68B5
:1037D0009A63FB68DB8F9BB2023B9AB2FB68DA8785
:1037E00012E0FB689A6BFB681B680C3312781A7046
:1037F000FB689B6B5A1CFB689A63FB68DB8F9BB270
:10380000013B9AB2FB68DA8700237B62FB681B6886
:103810009B6803F00103012B48D1FB68B3F84630E5
:103820009BB2002B42D0FB68B3F846309BB2012B11
:1038300023D9FB681B68DA68FB681B6C92B21A809C
:10384000FB681B6C9A1CFB681A64FB68B3F8463073
:103850009BB2023B9AB2FB68A3F84620FB68B3F820
:1038600046309BB2012B1FD8FB681B685A68FB6867
:103870001B6842F480525A6016E0FB681B6803F133
:103880000C02FB681B6C1278D2B21A70FB681B6CBE
:103890005A1CFB681A64FB68B3F846309BB2013BC4
:1038A0009AB2FB68A3F8462001237B62FDF7BEFCB9
:1038B0000246FB69D31A3A6B9A4203D83B6BB3F1C9
:1038C000FF3F02D13B6B002B03D1032387F823304A
:1038D0001CE0FB68DB8F9BB2002B7FF45BAFFB68C7
:1038E000B3F846309BB2002B7FF454AFFA69396BC2
:1038F000F86800F087F90346002B06D0012387F80B
:103900002330FB6820221A6600E000BFFB6801221A
:1039100083F85D20FB68002283F85C2097F8233051
:1039200018462837BD4680BD80B588B000AFF86026
:10393000B9603B601346FB71FDF778FC0246BB6A39
:103940009B1A3A681344FB61FDF770FCB861394B70
:103950001B685B011B0DFA6902FB03F37B6154E0FA
:103960003B68B3F1FF3F50D0FDF760FC0246BB69F6
:10397000D31AFA699A4202D9FB69002B3DD1FB6840
:103980001B685A68FB681B6822F0E0025A60FB68FB
:103990005B68B3F5827F11D1FB689B68B3F5004F7C
:1039A00004D0FB689B68B3F5806F07D1FB681B6888
:1039B0001A68FB681B6822F040021A60FB689B6A69
:1039C000B3F5005F0FD1FB681B681A68FB681B68C2
:1039D00022F400521A60FB681B681A68FB681B68B7
:1039E00042F400521A60FB68012283F85D20FB68F4
:1039F000002283F85C20032317E07B69002B01D1B0
:103A00000023FB617B69013B7B61FB681B689A6853
:103A1000BB681340BA689A420CBF01230023DBB293
:103A20001A46FB799A429BD1002318462037BD469F
:103A300080BD00BF0800002080B588B000AFF860EE
:103A4000B9607A603B60FDF7F1FB0246BB6A9B1AE6
:103A50003A681344FB61FDF7E9FBB8613C4B1A6817
:103A600013469B001344DA00D31A1B0DFA6902FBBC
:103A700003F37B615FE0BB68B3F5C06F06D17B6881
:103A8000002B03D1FB681B680C331B783B68B3F138
:103A9000FF3F50D0FDF7CAFB0246BB69D31AFA6953
:103AA0009A4202D9FB69002B3DD1FB681B685A681A
:103AB000FB681B6822F0E0025A60FB685B68B3F5A4
:103AC000827F11D1FB689B68B3F5004F04D0FB687F
:103AD0009B68B3F5806F07D1FB681B681A68FB68A9
:103AE0001B6822F040021A60FB689B6AB3F5005F16
:103AF0000FD1FB681B681A68FB681B6822F4005230
:103B00001A60FB681B681A68FB681B6842F4005265
:103B10001A60FB68012283F85D20FB68002283F8AD
:103B20005C20032310E07B69002B01D10023FB61A3
:103B30007B69013B7B61FB681B689A68BB6813402B
:103B40007A689A4297D1002318462037BD4680BD37
:103B50000800002080B586B002AFF860B9607A60D6
:103B6000FB685B68B3F5827F11D1FB689B68B3F596
:103B7000004F04D0FB689B68B3F5806F07D1FB68EA
:103B80001B681A68FB681B6822F040021A607B6899
:103B90000093BB6800228021F868FFF7C5FE03464A
:103BA000002B07D0FB681B6E43F02002FB681A66EF
:103BB000032323E0FB685B68B3F5827F1DD1FB68BC
:103BC0009B68B3F5004F04D0FB689B68B3F5806F2A
:103BD00013D17B680093BB6800224FF4C061F86882
:103BE000FFF72AFF0346002B07D0FB681B6E43F04C
:103BF0002002FB681A66032300E0002318461037F2
:103C0000BD4680BD80B586B002AFF860B9607A600D
:103C10007B680093BB6800224FF4C051F868FFF73F
:103C20000BFF0346002B07D0FB681B6E43F02002FE
:103C3000FB681A66032327E07B680093BB680022B9
:103C40008021F868FFF770FE0346002B07D0FB6861
:103C50001B6E43F02002FB681A66032314E07B68A6
:103C60000093BB6800224FF4C061F868FFF7E4FEE0
:103C70000346002B07D0FB681B6E43F02002FB6855
:103C80001A66032300E0002318461037BD4680BDA6
:103C900080B582B000AF78607B68002B01D1012332
:103CA00040E07B689B6F002B06D17B68002283F885
:103CB00074207868FDF730F97B6824229A677B6866
:103CC0001B681A687B681B6822F001021A6078681A
:103CD00000F0C0F80346012B01D1012322E07B68EC
:103CE0005B6A002B02D0786800F08AFA7B681B6858
:103CF0005A687B681B6822F490425A607B681B6894
:103D00009A687B681B6822F02A029A607B681B68AD
:103D10001A687B681B6842F001021A60786800F03C
:103D200011FB034618460837BD4680BD80B58AB0F2
:103D300002AFF860B9603B601346FB80FB689B6F85
:103D4000202B40F08280BB68002B02D0FB88002B28
:103D500001D101237AE0FB6893F87430012B01D183
:103D6000022373E0FB68012283F87420FB680022C1
:103D7000C3F88020FB6821229A67FDF757FA786123
:103D8000FB68FA88A3F85020FB68FA88A3F8522051
:103D9000FB689B68B3F5805F08D1FB681B69002B4B
:103DA00004D10023FB61BB68BB6103E0BB68FB611E
:103DB0000023BB61FB68002283F874202DE03B6880
:103DC00000937B6900228021F86800F004FB034621
:103DD000002B01D0032339E0FB69002B0BD1BB6919
:103DE0001A88FB681B68C2F3080292B21A85BB6985
:103DF0000233BB6108E0FB691A78FB681B6892B26A
:103E00001A85FB690133FB61FB68B3F852309BB242
:103E1000013B9AB2FB68A3F85220FB68B3F852301A
:103E20009BB2002BCBD13B6800937B6900224021E1
:103E3000F86800F0D0FA0346002B01D0032305E018
:103E4000FB6820229A67002300E0022318462037EF
:103E5000BD4680BD80B588B000AF78600023BB77D9
:103E60007B689A687B681B691A437B685B691A43A5
:103E70007B68DB6913437B617B681B681A68AB4B0B
:103E800013407A68126879690B4313607B681B687A
:103E90005B6823F440517B68DA687B681B680A43DF
:103EA0005A607B689B697B617B681B6A7A691343F4
:103EB0007B617B681B689B6823F430617B681B68AF
:103EC0007A690A439A607B681B68994A934220D1B9
:103ED000984B1B6B03F00303032B17D801A252F876
:103EE00023F000BFF53E0008013F0008073F00082F
:103EF000FB3E00080123FB77B5E00223FB77B2E02D
:103F00000423FB77AFE00823FB77ACE01023FB77BB
:103F1000A9E07B681B68884A934224D1854B1B6BC0
:103F200003F44033B3F5403F11D0B3F5403F17D809
:103F3000B3F5003F11D0B3F5003F11D8002B03D0EB
:103F4000B3F5803F06D00BE00023FB778BE0022324
:103F5000FB7788E00423FB7785E00823FB7782E08A
:103F60001023FB777FE07B681B68744A934224D15F
:103F7000704B1B6B03F44023B3F5402F11D0B3F506
:103F8000402F17D8B3F5002F11D0B3F5002F11D85B
:103F9000002B03D0B3F5802F06D00BE00023FB7776
:103FA00061E00223FB775EE00423FB775BE00823FC
:103FB000FB7758E01023FB7755E07B681B68604A6D
:103FC000934224D15B4B1B6B03F44013B3F5401FAA
:103FD00011D0B3F5401F17D8B3F5001F11D0B3F5BA
:103FE000001F11D8002B03D0B3F5801F06D00BE0C3
:103FF0000023FB7737E00223FB7734E00423FB77D1
:1040000031E00823FB772EE01023FB772BE07B6861
:104010001B684C4A934224D1464B1B6B03F440036C
:10402000B3F5400F11D0B3F5400F17D8B3F5000F1B
:1040300011D0B3F5000F11D8002B03D0B3F5800FCA
:1040400006D00BE00023FB770DE00223FB770AE0AC
:104050000423FB7707E00823FB7704E01023FB77BA
:1040600001E01023FB777B68DB69B3F5004F6DD16E
:10407000FB7F082B27D801A252F823F0A1400008AB
:10408000A9400008B1400008C7400008B740000838
:10409000C7400008C7400008C7400008BF400008EC
:1040A000FEF784FCB86113E0FEF7A2FCB8610FE0F4
:1040B000254BBB610CE0FEF703FCB86108E04FF450
:1040C0000043BB6104E00023BB610123BB7700BF59
:1040D000BB69002B00F08680BB695A007B685B6877
:1040E0005B081A447B685B68B2FBF3F39BB23B61ED
:1040F0003B690F2B16D93B69B3F5803F12D23B6960
:104100009BB223F00F03FB813B695B089BB203F07A
:1041100007039AB2FB891343FB817B681B68FA890A
:10412000DA605FE00123BB775CE000BFF369FFEF7B
:1041300000380140001002400044004000480040A8
:10414000004C00400050004000127A00FB7F082B1A
:1041500027D801A252F823F07D41000885410008CC
:104160008D410008A341000893410008A3410008C5
:10417000A3410008A34100089B410008FEF716FC7C
:10418000B86113E0FEF734FCB8610FE01B4BBB6174
:104190000CE0FEF795FBB86108E04FF40043BB610B
:1041A00004E00023BB610123BB7700BFBB69002B88
:1041B00018D07B685B685A08BB691A447B685B68E7
:1041C000B2FBF3F39BB23B613B690F2B08D93B6910
:1041D000B3F5803F04D27B681B683A69DA6001E07E
:1041E0000123BB777B6800225A667B6800229A66AF
:1041F000BB7F18462037BD4680BD00BF00127A0045
:1042000080B483B000AF78607B685B6A03F0010321
:10421000002B0AD07B681B685B6823F400317B6845
:104220009A6A7B681B680A435A607B685B6A03F082
:104230000203002B0AD07B681B685B6823F4803183
:104240007B68DA6A7B681B680A435A607B685B6A32
:1042500003F00403002B0AD07B681B685B6823F41F
:1042600080217B681A6B7B681B680A435A607B68F5
:104270005B6A03F00803002B0AD07B681B685B684D
:1042800023F400417B685A6B7B681B680A435A60C1
:104290007B685B6A03F01003002B0AD07B681B6805
:1042A0009B6823F480517B689A6B7B681B680A4388
:1042B0009A607B685B6A03F02003002B0AD07B685E
:1042C0001B689B6823F400517B68DA6B7B681B6872
:1042D0000A439A607B685B6A03F04003002B1AD0A4
:1042E0007B681B685B6823F480117B681A6C7B68B1
:1042F0001B680A435A607B681B6CB3F5801F0AD1A8
:104300007B681B685B6823F4C0017B685A6C7B6820
:104310001B680A435A607B685B6A03F08003002BCA
:104320000AD07B681B685B6823F400217B689A6C69
:104330007B681B680A435A6000BF0C37BD465DF8B6
:10434000047B704780B586B002AF78607B6800223E
:10435000C3F88020FCF76AFFF8607B681B681B6865
:1043600003F00803082B0ED16FF07E430093FB6827
:1043700000224FF40011786800F02DF80346002B5E
:1043800001D0032323E07B681B681B6803F0040350
:10439000042B0ED16FF07E430093FB6800224FF494
:1043A0008001786800F017F80346002B01D0032342
:1043B0000DE07B6820229A677B682022DA677B68A1
:1043C00000221A667B68002283F8742000231846B6
:1043D0001037BD4680BD80B584B000AFF860B960CD
:1043E0003B601346FB715EE0BB69B3F1FF3F5AD0FF
:1043F000FCF71CFF02463B68D31ABA699A4202D303
:10440000BB69002B1BD1FB681B681A68FB681B6823
:1044100022F4D0721A60FB681B689A68FB681B68FC
:1044200022F001029A60FB6820229A67FB68202232
:10443000DA67FB68002283F87420032343E0FB68FB
:104440001B681B6803F00403002B2CD0FB681B685F
:10445000DB6903F40063B3F5006F24D1FB681B68CC
:104460004FF400621A62FB681B681A68FB681B68DD
:1044700022F4D0721A60FB681B689A68FB681B689C
:1044800022F001029A60FB6820229A67FB682022D2
:10449000DA67FB682022C3F88020FB68002283F8DB
:1044A000742003230FE0FB681B68DA69BB681340C4
:1044B000BA689A420CBF01230023DBB21A46FB798B
:1044C0009A4291D0002318461037BD4680BD0000A7
:1044D000014B1868704700BF1400002070B50D4DE7
:1044E0000D4C641BA4100026A64209D10B4D0C4CA8
:1044F00001F048F9641BA4100026A64205D170BD46
:1045000055F8043B98470136EEE755F8043B9847C9
:104510000136F2E7D0590008D0590008D0590008F8
:10452000D459000802440346934200D1704703F86F
:10453000011BF9E70FB40A4B13B51C6824B1A3693A
:1045400013B9204600F086F805AB049AA1680193E0
:10455000204600F0FFFA02B0BDE8104004B07047FA
:10456000140000200EB400B59CB01DAB0290069064
:104570006FF00041094807910491094953F8042B51
:1045800005910068019302A900F0BAF9029B00228C
:104590001A701CB05DF804EB03B0704714000020E3
:1045A0000802FFFF002310B50446C0E90033C0E94C
:1045B0000433836081814366C28183611946082286
:1045C0005C30FFF7AFFF054B6362054BA362054B01
:1045D000E362054B2462236310BD00BFFD50000859
:1045E0001F510008575100087B510008014900F095
:1045F000AFB800BF5554000870B54A1E6825554332
:104600000E4605F1740100F0C5F8044640B10021E2
:10461000C0E900160C30A06005F16802FFF782FFC8
:10462000204670BD014800F0B3B800BFA4110020BF
:10463000014800F0AEB800BFA4110020014800F00E
:10464000A7B800BF9F110020014800F0A2B800BF2A
:104650009F11002010B50446FFF7F0FFA3691BB1BE
:10466000BDE81040FFF7F0BFC4E912332365134BD8
:10467000134A1B68A262A34204BF0123A361204620
:1046800000F020F86060204600F01CF8A060204692
:1046900000F018F80022E06004216068FFF782FF54
:1046A000A06801220921FFF77DFFE06802221221A4
:1046B000FFF778FF0123A361D2E700BF3859000854
:1046C000ED450008F8B50746FFF7ACFF1E4B1E6826
:1046D000B36913B93046FFF7BDFF4836D6E9013458
:1046E000013B03D533680BB33668F7E7B4F90C50D8
:1046F000D5B9164BE36004F15800656600F047F841
:10470000FFF796FFC4E90155C4E904552560A5618A
:104710000822294604F15C00FFF704FFC4E90D55A7
:10472000C4E912552046F8BD6834D9E7042138465B
:10473000FFF762FF044630600028D5D1FFF778FF0D
:104740000C233B60EEE700BF385900080100FFFF73
:104750002DE9F8430646884600F148040027D4E9CD
:104760000195B9F1010905D52468002CF7D1384627
:10477000BDE8F883AB89012B07D9B5F90E300133B9
:1047800003D029463046C04707436835E9E77047FC
:1047900070477047F8B5CD1C25F0030508350C2D82
:1047A00038BF0C25002D064601DBA94203D90C2396
:1047B00033600020F8BD00F027FF21490A68144645
:1047C0009CB9204F3B6823B92146304600F086FC57
:1047D00038602946304600F081FC431C23D10C236D
:1047E0003360304600F016FFE3E723685B1B17D405
:1047F0000B2B03D923601C44256004E06368A242AC
:104800000CBF0B605360304600F004FF04F10B0056
:10481000231D20F00700C21ACCD01B1AA350C9E7F1
:1048200022466468CCE7C41C24F00304A042E3D011
:10483000211A304600F052FC0130DDD1CFE700BF35
:104840009C000020A00000202DE9F0478E689E42C9
:1048500082460C4690461F4638D88A8912F4906FDB
:1048600032D025680969A5EB0109656905EB4505A5
:1048700005EBD57501334B446D109D4238BF1D4685
:10488000530531D52946FFF785FF064650B90C235D
:10489000CAF80030A38943F04003A3814FF0FF30F2
:1048A000BDE8F08721694A4600F086FEA38923F41B
:1048B000906343F08003A381266165614E44A5EBBC
:1048C00009052660A5603E46BE4200D93E463246F6
:1048D0002068414600F07EFEA36822689B1B32449C
:1048E000A36022600020DBE72A4600F0E9FE0646CE
:1048F0000028E1D12169504600F092FEC7E7000090
:104900002DE9F04F98468B891B069DB007460D4652
:1049100014460ED50B6963B94021FFF73BFF2860B1
:10492000286120B90C233B604FF0FF30D1E04023D9
:104930006B610023099320238DF82930CDF80C807A
:104940003023DFF8A8818DF82A304FF00109234683
:104950009A4613F8012B0AB1252AF9D1BAEB040BB8
:104960000BD05B46224629463846FFF76DFF0130E3
:1049700000F0AA80099A5A4409929AF80030002B54
:1049800000F0A28000234FF0FF32CDE905230AF1A9
:10499000010A049307938DF853301A935446052265
:1049A00014F8011B5148FBF71BFC049AD8B9D00638
:1049B00044BF20238DF85330110744BF2B238DF8BB
:1049C00053309AF800302A2B15D0079A544600200D
:1049D0004FF00A0C214611F8013B303B092B4ED910
:1049E000B0B1079214E0A0EB080309FA03F31343F4
:1049F0000493A246D2E7039B191D1B680391002B69
:104A0000BBBF5B4242F0020207930793B8BF049218
:104A100023782E2B0CD163782A2B35D1039B1A1DBA
:104A20001B680392002BB8BF4FF0FF33023405938D
:104A3000DFF8C8A0217803225046FBF7D1FB40B134
:104A40004023A0EB0A0003FA00F0049B0343013467
:104A5000049314F8011B26488DF828100622FBF752
:104A6000BFFB002838D0234B1BBB039B073323F02D
:104A7000070308330393099B3344099367E70CFB4F
:104A800002320C460120A5E70023013405931946A4
:104A90004FF00A0C204610F8012B303A092A03D9AE
:104AA000002BC5D00591C3E70CFB0121044601236F
:104AB000F0E703AB00932A460F4B04A93846AFF347
:104AC0000080421C0646D6D1AB895B063FF52CAF71
:104AD00009981DB0BDE8F08F03AB00932A46064B42
:104AE00004A9384600F0D4F9EBE700BF9C59000850
:104AF000A65900080000000049480008A259000813
:104B00009368013B002B10B4936008DA9469A342C8
:104B100001DB0A2903D15DF8044B00F033BB1368B5
:104B2000581C1060197008465DF8044B7047F8B5C2
:104B300006460F461446D518AC4201D1002007E0C6
:104B400014F8011B3A463046FFF7DAFF431CF3D155
:104B5000F8BD00002DE9F04F0D469DB01446984673
:104B6000064618B183690BB9FFF774FD894B9D4266
:104B70001BD175686B6ED90705D4AB899A0502D431
:104B8000A86DFFF705FEAB891B0701D52B69EBB9B3
:104B90002946304600F05AFBC0B16B6EDC070ED5DB
:104BA0004FF0FF301DB0BDE8F08F7B4B9D4201D12F
:104BB000B568DFE7794B9D4208BFF568DAE7AB8956
:104BC0009805EDD4A86DFFF7E4FDE9E7002309930C
:104BD00020238DF82930CDF80C803023DFF8C081F8
:104BE0008DF82A304FF0010923469A4613F8012B1D
:104BF0000AB1252AF9D1BAEB040B0BD05B46224649
:104C000029463046FFF793FF013000F0AA80099A49
:104C10005A4409929AF80030002B00F0A280002339
:104C20004FF0FF32CDE905230AF1010A04930793FF
:104C30008DF853301A935446052214F8011B584836
:104C4000FBF7CEFA049AD8B9D10644BF20238DF8D9
:104C50005330130744BF2B238DF853309AF800309C
:104C60002A2B15D0079A544600204FF00A0C2146F3
:104C700011F8013B303B092B4ED9B0B1079214E03B
:104C8000A0EB080309FA03F313430493A246D2E707
:104C9000039B191D1B680391002BBBBF5B4242F0B5
:104CA000020207930793B8BF049223782E2B0CD1EE
:104CB00063782A2B35D1039B1A1D1B680392002BA6
:104CC000B8BF4FF0FF3302340593DFF8E4A021783A
:104CD00003225046FBF784FA40B14023A0EB0A00C0
:104CE00003FA00F0049B03430134049314F8011BFE
:104CF0002C488DF828100622FBF772FA00283FD0C6
:104D0000294B1BBB039B073323F007030833039393
:104D1000099B3B44099367E70CFB02320C460120D8
:104D2000A5E700230134059319464FF00A0C2046ED
:104D300010F8012B303A092A03D9002BC5D0059170
:104D4000C3E70CFB012104460123F0E703AB00930A
:104D50002A46164B04A93046AFF300800746781C5C
:104D6000D6D16B6ED90705D4AB899A0502D4A86D4C
:104D7000FFF70FFDAB895B063FF512AF099811E70E
:104D800003AB00932A46094B04A9304600F080F893
:104D9000E4E700BF5C5900087C5900083C59000852
:104DA0009C590008A6590008000000002F4B00087D
:104DB000A25900082DE9F047164699468A680B6902
:104DC000DDF820809342B8BF1346336091F843204A
:104DD00007460C460AB1013333602368990642BF87
:104DE000336802333360256815F0060506D104F1F7
:104DF000190AE36832689B1AAB4226DC94F8432018
:104E0000131E226818BF012392062BD404F143021B
:104E100049463846C04701301ED02368E5683268ED
:104E200003F00603042B08BFAD1AA36822690CBF68
:104E300025EAE57500259342C4BF9B1AED180026AC
:104E40001A34B5421AD1002008E0012352464946DF
:104E50003846C047013003D14FF0FF30BDE8F0873E
:104E60000135C6E7E1185A1C302081F8430022447E
:104E700094F8451082F843100233C7E70123224615
:104E800049463846C0470130E6D00136D9E7000030
:104E90002DE9FF470C469146277E0C99782F8046D6
:104EA0009A4604F1430207D8622F0AD8002F00F077
:104EB000D880582F00F0A38004F1420684F8427095
:104EC0003AE0A7F16303152BF6D801A050F823F0C0
:104ED000294F00083D4F0008B94E0008B94E0008A0
:104EE000B94E0008B94E00083D4F0008B94E000801
:104EF000B94E0008B94E0008B94E000849500008E4
:104F00006D4F00082B500008B94E0008B94E00083C
:104F10006B500008B94E00086D4F0008B94E0008EC
:104F2000B94E0008335000080B681A1D1B680A6050
:104F300004F1420684F842300123A3E025680868A2
:104F40002E0600F104030AD505680B60002D03DA74
:104F50002D236D4284F843305E480A2319E015F092
:104F6000400F05680B6018BF2DB2EFE70B6825688E
:104F7000181D0860280601D51D6802E06906FBD5EA
:104F80001D8854486F2F0CBF08230A23002184F882
:104F900043106668A660002EA2BF216821F00401BC
:104FA00021600DB9002E4DD01646B5FBF3F103FB81
:104FB0001157C75D06F8017D2F46BB420D46F4D957
:104FC000082B0BD12368DF0708D523696168994254
:104FD000DEBF302306F8013C06F1FF36921B22614A
:104FE000CDF800A04B4603AA21464046FFF7E2FE5B
:104FF00001304CD14FF0FF3004B0BDE8F0873548A8
:1050000084F8457023680E681F0656F8045B0E602E
:1050100014D5D90744BF43F0200323601DB923688A
:1050200023F0200323601023B0E7236843F020031C
:1050300023607823284884F84530E3E75E0648BFBC
:10504000ADB2E6E71646BBE70B68266860691D1D32
:105050000D6035061B6801D5186002E07106FBD5AE
:105060001880002323611646BAE70B681A1D0A60F0
:105070001E68626800213046FBF7B2F808B1801B59
:10508000606063682361002384F84330A8E72369E4
:10509000324649464046D0470130ABD023689B0793
:1050A00013D4E068039B9842B8BF1846A4E70123D5
:1050B000324649464046D04701309BD00135E3682F
:1050C00003995B1AAB42F2DCEBE7002504F1190609
:1050D000F5E700BFAD590008BE59000838B5064DC8
:1050E0000023044608462B60FBF7D4FF431C02D183
:1050F0002B6803B1236038BDA811002010B50C4601
:10510000B1F90E1000F002FB0028ABBF636DA3895C
:105110001B1823F48053ACBF6365A38110BD2DE938
:10512000F0411F468B89DB0505460C46164605D522
:10513000B1F90E100223002200F0C8F9A389B4F9D6
:105140000E1023F48053A38132463B462846BDE827
:10515000F04100F069B810B50C46B1F90E1000F03E
:10516000B5F9431CA38915BF606523F4805343F44C
:105170008053A38118BFA38110BDB1F90E1000F0B8
:10518000D3B80000F8B50E461446054618B1836939
:105190000BB9FFF75FFA214B9C422BD16C68A369D6
:1051A000A360A3891A072FD523696BB323692068ED
:1051B000C01A6369F6B28342374604DC21462846AA
:1051C00000F048F930BBA368013BA36023685A1C78
:1051D00022601E7063690130834204D0A389DB071B
:1051E00006D50A2E04D12146284600F033F988B9A5
:1051F0003846F8BD0A4B9C4201D1AC68CFE7094B59
:105200009C4208BFEC68CAE72146284600F01EF819
:105210000028CBD04FF0FF37EAE700BF5C59000809
:105220007C5900083C59000838B5074D044608462B
:10523000114600222A601A46FBF7FCFA431C02D1F1
:105240002B6803B1236038BDA8110020324B70B524
:105250001D6806460C4625B1AB6913B92846FFF711
:10526000F9F92E4B9C420FD16C68A389B4F90C203C
:1052700019072CD4DD0611D40923336042F0400312
:10528000A3814FF0FF303EE0254B9C4201D1AC683A
:10529000EBE7244B9C4208BFEC68E6E7580712D5C1
:1052A000616B41B104F14403994202D0304600F0F1
:1052B000B7F900236363A38923F02403A3810023A8
:1052C000636023692360A38943F00803A3812369F2
:1052D0004BB9A38903F42073B3F5007F03D02146B3
:1052E000304600F029F9A089B4F90C2010F0010330
:1052F0000AD00023A36063695B42A361236943B9B9
:1053000010F08000BAD170BD810758BF6369A360F7
:10531000F4E70020F7E700BF140000205C59000804
:105320007C5900083C59000838B5064D0023044656
:1053300008462B60FBF779FE431C02D12B6803B1B2
:10534000236038BDA81100208A892DE9F041054667
:1053500010070C4658D44B68002B05DC0B6C002B57
:1053600002DC0020BDE8F081E66A002EF9D00023BF
:1053700012F480522F682B6032D0606DA3895A07D7
:1053800005D56368C01A636B0BB1236CC01A002388
:105390000246E66A216A2846B047431CA38906D123
:1053A00029681D292CD82A4ACA40D60728D50022A8
:1053B0006260D9042269226004D5421C01D12B68A5
:1053C00003B96065616B2F600029CAD004F1440302
:1053D000994202D0284600F023F900206063C1E71B
:1053E000216A01232846B047411CC7D12B68002BF6
:1053F000C4D01D2B01D0162B01D12F60B1E7A3899A
:1054000043F04003A381ADE70F69002FA9D09307B4
:105410000E6808BF4B690F6018BF0023A6EB070892
:105420008B60B8F1000F9CDD216AA66A43463A46BC
:105430002846B047002806DCA38943F04003A38137
:105440004FF0FF308EE70744A8EB0008E9E700BF04
:105450000100402038B50B6905460C4613B90025FC
:10546000284638BD18B183690BB9FFF7F3F8144B20
:105470009C421BD16C68B4F90C30002BEFD0626EEB
:10548000D00704D4990502D4A06DFFF781F928460E
:105490002146FFF759FF636EDA070546E0D4A3897A
:1054A0009B05DDD4A06DFFF774F9D9E7054B9C424D
:1054B00001D1AC68DFE7044B9C4208BFEC68DAE737
:1054C0005C5900087C5900083C59000838B5074D64
:1054D00004460846114600222A601A46FBF7CCFD16
:1054E000431C02D12B6803B1236038BDA8110020F2
:1054F00070B50E46B1F90E10002996B014461D463F
:1055000007DA00232B60B3891A0610D44FF48063A6
:105510000EE06A4600F00CF90028F2DB019A02F472
:105520007042A2F500535A425A412A60EEE74023E6
:105530000020236016B070BD8B8973B59D070646A9
:105540000C4607D504F147032360236101236361FF
:1055500002B070BD01AB6A46FFF7CAFF009905466D
:105560003046FFF717F948B9B4F90C309A05EFD473
:1055700023F0030343F00203A381E3E70D4BB3627F
:10558000A389206043F08003A381009B6361019B9A
:1055900020615BB1B4F90E10304600F0DBF828B1A1
:1055A000A38923F0030343F00103A381A0890543EA
:1055B000A581CDE7ED4500080A44914200F1FF3393
:1055C00000D1704710B511F8014B03F8014F91421B
:1055D000F9D110BD884210B501EB020402D9844212
:1055E000234607D8431EA14208D011F8012B03F827
:1055F000012FF8E7024401468A4200D110BD13F89A
:10560000014D02F8014DF7E70148FFF7C1B800BFAF
:10561000A01100200148FFF7BCB800BFA011002076
:1056200037B5002948D051F8043C0190002BA1F176
:105630000404B8BFE418FFF7E7FF204A0198136895
:10564000154633B96360146003B0BDE83040FFF71E
:10565000E1BFA3420BD921686218934204BF1A68C4
:105660005B68636004BF521822602C60ECE71A4646
:105670005B680BB1A342FAD911685518A5420BD14A
:10568000246821445418A3421160DDD11C685B6872
:10569000536021441160D7E702D90C230360D3E79C
:1056A000256861198B4204BF19685B68636004BF99
:1056B000491921605460C7E703B030BD9C00002049
:1056C000F8B5074614460E4621B9BDE8F840114624
:1056D000FFF760B822B9FFF7A3FF25462846F8BDBB
:1056E00000F048F8A0420FD221463846FFF752F8A2
:1056F00005460028F2D031462246FFF75DFF3146CD
:105700003846FFF78DFFE9E73546E7E738B5074D3F
:1057100004460846114600222A601A46FBF768FC38
:10572000431C02D12B6803B1236038BDA8110020AF
:1057300038B5074D00230446084611462B60FBF799
:1057400080FC431C02D12B6803B1236038BD00BF2D
:10575000A811002038B5064D0023044608462B60EA
:10576000FBF77FFC431C02D12B6803B1236038BDDB
:10577000A811002051F8043C181F002BBCBF0B5887
:10578000C0187047F8B500BFF8BC08BC9E4670470B
:0C579000F8B500BFF8BC08BC9E4670478E
:10579C0053504920546573740D0A000053746172A0
:1057AC00742061646472657373206F662065726126
:1057BC0073652069732025780D0A00005374617499
:1057CC0075736279746520616674657220657261A7
:1057DC007365206F7065726174696F6E20697320D8
:1057EC0025780D0A00000000636865636B696E67BD
:1057FC0020627566666572206166746572206572DA
:10580C006173652069732025782025782025782000
:10581C002578202578200D0A000000005374617251
:10582C00742061646472657373206F6620627566A0
:10583C006665722069732025780D0A0053746174B3
:10584C00757362797465206166746572207772690C
:10585C007465206F7065726174696F6E2069732056
:10586C0025780D0A00000000537461747573627919
:10587C0074652061667465722072656164206F7056
:10588C0065726174696F6E2069732025780D0A004A
:10589C0074686520726563656976656420627566F7
:1058AC006665722069732025642025642025642098
:1058BC002564202564200D0A000000007468652012
:1058CC00427974655F4164647265737320697320F7
:1058DC0025780D0A00000000746865205265636924
:1058EC00657665645F627974652069732025640D43
:1058FC000A00000000000000000000000102030488
:10590C000607080900000000010203040203040555
:10591C00060708090A0B0C0D0E0F101001020304E8
:10592C0005060708090A0B0C0D0E0F1018000020B5
:10593C00000000000000000000000000000000005B
:10594C00000000000000000000000000000000004B
:10595C00000000000000000000000000000000003B
:10596C00000000000000000000000000000000002B
:10597C00000000000000000000000000000000001B
:10598C00000000000000000000000000000000000B
:10599C00232D302B2000686C4C006566674546470C
:1059AC00003031323334353637383941424344458F
:1059BC0046003031323334353637383961626364FE
:0459CC00656600000C
:0459D000C501000805
:0459D400A101000825
:1059D8001900AA003C00000000127A001000000024
:1059E8000100000018000020000000005C590008B9
:1059F8007C5900083C590008000000000000000025
:105A0800000000000000000000000000000000008E
:105A1800000000000000000000000000000000007E
:105A2800000000000000000000000000000000006E
:105A3800000000000000000000000000000000005E
:085A4800000000000000000056
:0400000508001125B9
:00000001FF
